:020000022000DC
:1060000000000420D51C0300151D0300171D03000C
:10601000191D03001B1D03001D1D030000000000CF
:10602000000000000000000000000000E943030041
:10603000211D03000000000009440300251D03008A
:10604000ED440300271D0300271D0300271D030047
:10605000271D0300271D0300311F0300271D030018
:10606000271D0300271D0300271D0300271D030014
:10607000271D0300271D0300271D0300271D030004
:10608000271D030039410300271D0300271D0300BE
:10609000271D0300271D030095740200271D030020
:1060A000271D0300271D0300271D0300271D0300D4
:1060B000271D0300271D0300000000000000000052
:1060C000271D0300271D0300271D0300271D0300B4
:1060D000271D0300271D0300271D0300358F020025
:1060E000271D0300271D0300271D030000000000DB
:1060F00000000000271D030000000000271D030012
:10610000000000000000000000000000000000008F
:10611000000000000000000000000000000000007F
:10612000000000000000000000000000000000006F
:10613000000000000000000000000000000000005F
:10614000000000000000000000000000000000004F
:10615000000000000000000000000000000000003F
:10616000000000000000000000000000000000002F
:10617000000000000000000000000000000000001F
:10618000000000000000000000000000000000000F
:1061900000000000000000000000000000000000FF
:1061A00000000000000000000000000000000000EF
:1061B00000000000000000000000000000000000DF
:1061C00000000000000000000000000000000000CF
:1061D00000000000000000000000000000000000BF
:1061E00000000000000000000000000000000000AF
:1061F000000000000000000000000000000000009F
:10620000F1EE103A43F08073E1EE103A704700BFB0
:1062100010B5054C237833B9044B13B10448AFF3E0
:1062200000800123237010BDA46300200000000043
:10623000CC97030008B5034B1BB103490348AFF3E8
:10624000008008BD00000000A8630020CC97030078
:10625000154B002B08BF134B9D46A3F5803A002138
:106260008B460F461348144A121A0FF09BFB0F4B34
:10627000002B00D098470E4B002B00D098470020F1
:10628000002104000D000D48002802D00C48AFF397
:1062900000800FF01DFB200029000EF093FD0FF091
:1062A000F1FA00BF00000800000004200000000018
:1062B00000000000A4630020589A002000000000A5
:1062C00000000000F8B5144F144C154D154E38461B
:1062D00001F010FA2246144938460FF093FA284686
:1062E00001F09AFA2246114928460FF08BFA104D18
:1062F00030464FF4807101F0E5FE22460D493046EC
:106300000FF080FA284601F0DDF8224628460A49B7
:10631000BDE8F8400FF076BA30640020006000203D
:10632000A0640020E86400207D6302006563020031
:10633000C0630020598102003D63020010B5074B85
:10634000044640F8183B00F0D3F92046044B40F8CF
:10635000083B00F0A1FF204610BD00BF7C8E03006B
:10636000548E030010B5044B044640F8083B00F07F
:1063700093FF204610BD00BF548E030010B5074B9D
:10638000044640F8183B00F0B3F92046044B40F8AF
:10639000083B00F081FF204610BD00BFD08E0300F7
:1063A000548E030010B5174C2378032B0AD8DFE86E
:1063B00003F00218201000231A46FF21012000F0EC
:1063C00035F923780133DBB2032B88BF0023237018
:1063D00010BD00231A461946012000F027F9237842
:1063E000F0E700231946FF22012000F01FF923786F
:1063F000E8E70022FF231146012000F017F9237877
:10640000E0E700BFDC65002010B5174C2378032BB4
:106410000AD8DFE803F00218201000231A46FF21F3
:10642000032000F003F923780133DBB2032B88BF8C
:106430000023237010BD00231A461946032000F0E4
:10644000F5F82378F0E700231946FF22032000F037
:10645000EDF82378E8E70022FF231146032000F03F
:10646000E5F82378E0E700BFDD65002010B500F017
:10647000C7F800F0D5F800F091F800221146104658
:10648000054B00F0A9F80023BDE81040034A194667
:10649000012000F0A1B800BFA5630200096402005A
:1064A000704700BF10B5194C60680EF00FFCC0B209
:1064B000012821D00BF07EFDA26841F28733801ABB
:1064C00098420DD9E36903B19847626810491148B1
:1064D00010F0FEF8BDE8104001460E4800F098B8F4
:1064E00040F6B73398420BD8312808D9636903B115
:1064F000984762680849EAE70BF05CFDA06010BDB0
:10650000A36903B1984762680449E0E72C60002062
:10651000E88D0300E0650020148E0300FC8D03006D
:1065200010B5194C60680EF0D1FBC0B2012821D023
:106530000BF040FDA26841F28733801A98420DD9D2
:10654000E36903B1984762681049114810F0C0F838
:10655000BDE8104001460E4800F05AB840F6B73387
:1065600098420BD8312808D9636903B1984762680B
:106570000849EAE70BF01EFDA06010BDA36903B156
:10658000984762680449E0E70C600020E88D03004A
:10659000E0650020148E0300FC8D030010B50D4C47
:1065A0002368032158680EF0EFFA23684FF48172D4
:1065B000196958680BF0B8FB6368032158680EF03E
:1065C000E3FA63684FF48172BDE8104019695868B6
:1065D0000BF0AABB0460002070B4084D2C6826782C
:1065E000864204BFC4E9062163616C682578854250
:1065F00004BFC4E90621636170BC704704600020D9
:1066000002484FF4E13102F045B900BF707000203C
:106610000A460146014802F069B800BF70700020C8
:1066200001480BF06FB800BFE067002010B5074CC1
:1066300043EA022242EA014281B220460BF00AFB01
:106640002046BDE810400BF06FB800BFE0670020A7
:1066500010B5074C082220460A2152230BF016F8E9
:106660002046044A0449BDE810400FF0CBB800BFF3
:10667000E067002000600020E91603000022C277D6
:106680000270704710B4084A084C0949026200229F
:10669000C0E90A41C0E90C225DF8044B0270C277E0
:1066A00042628263704700BFFF0101002000F400D6
:1066B00020001E0080F82210704700BF10B44FF079
:1066C00010144FF448010022C0E90041C0E9022241
:1066D0005DF8044B704700BFAADF7047ABDF70471F
:1066E000ACDF7047ADDF7047AEDF7047B0DF70479B
:1066F00010B5044B044640F8043B00F0CDFD2046A5
:1067000010BD00BF348E030010B5054B044640F8A1
:10671000043B00F0C1FD20460EF096FB204610BD64
:10672000348E030070B57B4B04461B68836196B0C2
:10673000043000F0DFFD94F82E30A06913F032022F
:1067400008BF84F82F2013F00C0308BF84F8303002
:106750000DF10102694600F095FD94F82F209DF897
:10676000010015070DD09DF8001002F00F0301F095
:106770000F059D424FEA12126DD243EA021284F8CD
:106780002F2094F8303019070BD003F00F0100F0E0
:106790000F058D424FEA131369D241EA031384F8BF
:1067A000303094F82E1011F0300340F096800FAD89
:1067B0000F93C5E90133C5E903338DF83C10AB6194
:1067C0000021ADF809109DF80A10206A14930123E6
:1067D00063F342018DF808208DF80A1008B10378A0
:1067E00073BB94F8263013B104F12603129394F886
:1067F00031200023D2070893079358BFE38AADF8EE
:106800001C3004F1080004F12F01CDE9050154BF4B
:106810001846E08AADF82000294604F13203E56904
:10682000099505AA0020FFF757FF054628B994F8F7
:10683000253043BB237D002B64D0284616B070BDA5
:1068400010900FF09AFF02AB80B2ADF84400ADF8A3
:1068500046001393C5E74FEA111101D191428CD341
:106860000A462B4643EA021284F82F2089E74FEAB2
:10687000101001D1984290D30346294641EA0313F0
:1068800084F830308DE7ADF80D009DF80E2094F8B7
:106890002F600C90012363F3420242F608118DF839
:1068A0000E208DF8123004AA0223ADF8101003A9AF
:1068B0000D90ADF83030ADF834300A9204F1240375
:1068C0000B910DF102020AA98DF80C600E93FFF7EF
:1068D00005FF0028AED00546AFE70F4B8DF8052029
:1068E0000FAD1B788DF80430022000230F938DF834
:1068F0000600C5E90133C5E90333AB618DF83C10EF
:1069000001AB5DE72146054800F066FB284616B05E
:1069100070BD00BFF8670020288E0300386C00208F
:106920002DE9F0410B888E88502B8AB00C46054625
:1069300009D0512B04D18B79012B19D0022B26D0F1
:106940000AB0BDE8F081CB88428E9A4235D0EA8EFB
:106950009A42F5D16B6D002BF2D095F84420648AF1
:10696000920700F18A802246294630469847E7E799
:10697000836C002BE4D090F84420520701F1080703
:106980006CD43A46294630469847A379D6E7A27B8D
:10699000042A46D0062A20D0012AD1D1EB6C002B44
:1069A000CED095F84420170704F1080400F1A58023
:1069B0002246294630469847C2E7076D002FC6D0C9
:1069C00090F84430D90768D404F11208238A42466B
:1069D00029463046B847E388B9E7EA6B002AAFD0CA
:1069E000002202A93046CDE90222CDE90422ADF809
:1069F0000C208DF80830FFF779FE2C6D54B195F816
:106A00004430D80700F19280B5F84230EA6B304646
:106A10002946A047E86B0BF00FFB0023C5E90F33B5
:106A20008EE7E86B002878D0B5F84010278A628A94
:106A300007EB020C00234FF0020E8C45CDE9063324
:106A4000CDE908338DF818E039DD40F20913ADF8CF
:106A50001C3006A93046FFF749FE71E703211A46AC
:106A6000009106AB08213846CDE9066508970DF080
:106A700073FF002889D1AB6C83E7032000211A46FD
:106A8000009006AB0846CDE9066508940DF064FF5A
:106A900000287FF455AF6B6D65E7218A069604F1F7
:106AA0001208042300933A46404606ABCDE908811C
:106AB00007950DF051FF00288DD12F6D86E79DF8C9
:106AC0001EC0ADF81C3004F114014CF00103384431
:106AD000ADF822208DF81E300991ADF820700EF02F
:106AE00039FF238A618AB5F842200B449BB2934256
:106AF00038BF1346A5F84230ABE703211A46009190
:106B000006AB0E212046CDE9066508940DF024FF62
:106B100000287FF415AFEB6C4AE74FF480600BF070
:106B200071FA4FF48061C5E90F017FE7E86BB5F8B2
:106B30004210069604230093224606ABCDE9075087
:106B400009910DF009FF00287FF464AF2C6D5BE71D
:106B50002DE9F04F0F464FF6FF718F4289B0064680
:106B600015461C4626D0F18A96F82E308C4228BF56
:106B70000C46DB0615D40DF1100B8C4228BF0C46D9
:106B80004FF00008718EADF810405A464FF6FF7076
:106B90000595ADF81280FFF7A3FD404609B0BDE8AA
:106BA000F08F3948394600F055FC08B1F18E31B903
:106BB000F18AE0E7344800F059FC0746D3E70020AB
:106BC00002230DF1100BADF81200ADF810305A464B
:106BD0000DF10E0338460593FFF784FD43F20143A0
:106BE00098424FD000284AD19DF80E8008F0010845
:106BF000B8F1000F46D02448394600F043FC8246E5
:106C0000A0B300F07FF9033883B2002CC5D0CDF8D3
:106C100004804FF00009984605E0BDF80E30E41AF4
:106C2000A4B21D4444B3504600F088F9A045034681
:106C30004246594628BF22463846BBB1ADF80E2021
:106C40004FF00102738E8DF812200DF10E02CDE986
:106C50000625CDF813908DF81790ADF81030FFF79A
:106C600043FD0028D9D0504600F072F94FF00008DB
:106C7000404609B0BDE8F08FDDF804808DE700F0F4
:106C80000108B5E7F18A78E7FC67002010B5154BDD
:106C9000044640F8043B00F007FB134A0023127837
:106CA00084F8443014200321A384C4F82630C4F8A7
:106CB0002A3084F82E30E082C4E90F33C4E912335D
:106CC000C4E9143384F831102375A3612362E361AE
:106CD00063866363238784F82F2084F8302020465E
:106CE00010BD00BF348E0300288E030070B44E68C0
:106CF000164A86600260D1E90262154B154D1C7878
:106D000045600261142500220321C0E90F22C0E979
:106D10001222C0E91422C660C58280F8311080F8C2
:106D200044200275826102628284C0F82620C0F885
:106D30002A2080F82E20C26142864263028780F8B2
:106D40002F4080F8304070BC704700BF348E030085
:106D5000288E03006C8E030010B4D1E90142CB6889
:106D60000361C0E902425DF8044B704780697047D7
:106D700001230375704700BF80F82E10704700BFD5
:106D8000C182704741B190F83130C182002262F374
:106D9000000380F83130704790F83130012262F3FF
:106DA000000380F83130704780F82F1080F83020D1
:106DB000704700BF90F84430016562F3000380F82B
:106DC0004430704710B490F8443090F83140C164BA
:106DD000003918BF012161F3041462F3C30380F882
:106DE000314080F844305DF8044B704701627047D1
:106DF00051F8322F026049684160704730B5C48A4B
:106E000083B0944223460D4628BF1346418E019518
:106E100000246A464FF6FF70ADF80030ADF802402E
:106E2000FFF75EFC18B9BDF8000003B030BD204686
:106E300003B030BD30B5C38A85B00A46022B28BFE7
:106E40000223418EADF8062000240DF1060502AAAA
:106E50004FF6FF70ADF80830ADF80A400395FFF724
:106E60003FFC18B9BDF8080005B030BD204605B09C
:106E700030BD00BF90F82E3013F0100301D118463A
:106E8000704730B5044685B011480D4600F0E2FA6F
:106E900010B1E18E11B9084605B030BD0DF1060301
:106EA00028460024022502AA0393ADF80A40ADF853
:106EB0000850FFF717FC43F20143984206D008B987
:106EC0009DF8060000F0010005B030BD2046E3E764
:106ED000FC67002010B490F82E4014F0100403D08A
:106EE0005DF8044BFFF734BE20465DF8044B704755
:106EF00076DF7047007D7047C07D113818BF0120D4
:106F0000704700BFC08870474B7D10B44BB11F3134
:106F10000C688A888B79046082805DF8044B8371E9
:106F200070471831F4E700BF08B513218088FFF7D8
:106F3000DFFFB0FA80F0400908BD00BF08B5662148
:106F4000806A0BF07DFD003818BF012008BD00BF2E
:106F500008B500231A461946806A0BF049F9003833
:106F600018BF012008BD00BF38B50A4604460D46CB
:106F700000F11801407C01F0BBF9607550B1294661
:106F800051F8483FC4F81F308B888A7984F825204F
:106F9000A4F8233038BD00BF10B50446043001F01A
:106FA0009DF9034B236000232375204610BD00BFCD
:106FB0000100FFFF10B5044600F5F87001F08EF9EE
:106FC0002046F82200210EF0EDFCF822A018002146
:106FD0000EF0E8FC204610BD90F85420272A0CD86B
:106FE00010B4034602F11604013280F8542043F82D
:106FF000241001205DF8044B70470020704700BF4B
:107000000378132B06D800EB8302013303700120B1
:107010005160704700207047054A034692E803001C
:10702000002283E80300C3E902221846704700BF2C
:10703000448E030030B40D4CC4621F25002250243E
:107040008584A025C0E91122C0E90F22A0F846508E
:10705000A0F84840006230BC8262028680F8382086
:107060004263C264A0F85020704700BF0001800056
:1070700046DF704710B50446083001F001FA064BB0
:107080002360032200232271C4F81034C4F814349E
:10709000C4F81834204610BD350710030B7803F0F0
:1070A000FE03042B01D00020704770B515468CB04C
:1070B0000C462022002104A80EF074FC28686968A0
:1070C000AA68EB686D460FC59DF800109DF80F206B
:1070D0009DF801609DF80E509DF802008DF80F108C
:1070E00023469DF80D108DF800209DF803208DF8A3
:1070F0000E608DF801509DF80C609DF804508DF8DD
:107100000D008DF802109DF80B009DF805108DF80C
:107110000C209DF80A208DF803608DF80B508DF837
:1071200004008DF805208DF80A109DF8061033F83C
:10713000042FADF810209B789DF809209DF81D00C4
:107140009DF810609DF81F508DF809108DF80620ED
:107150009DF811109DF81E208DF81D309DF8073008
:107160008DF812008DF81F609DF808009DF81360DF
:107170008DF810508DF81E109DF81C509DF81410BD
:107180008DF811208DF808309DF81B209DF81A30DD
:107190008DF807008DF81C608DF813509DF8156070
:1071A0008DF81B108DF8142068468DF815309DF869
:1071B00019109DF817209DF818309DF816508DF87D
:1071C00018208DF816108DF817308DF81A608DF88C
:1071D0001950FFF74DFF62789DF82F309DF82E0073
:1071E0009DF82D108DF821009A428DF8221004F19F
:1071F000010404D0012080F001000CB070BD627861
:10720000C3B29A4204F10104F4D16278CBB29A423B
:10721000F0D10020EFE700BFA8DF7047704700BF44
:1072200030B5044683B0083000F064F804F10C0176
:107230000DF106020120FFF7EFFF054628B9044BC8
:1072400004481C602146FFF7DBFE284603B030BD32
:10725000F8670020386C002030B44C68C460D1E975
:107260000241054A054D0260054A8560C0E90441B6
:10727000426030BC704700BF548E03006C8E030028
:107280000000111183790B70C3791370704700BF30
:1072900062DF704763DF7047704700BF10B5044678
:1072A0000DF0D2FD204610BD034A02600022C0E965
:1072B00002228271828070476C8E030010B4054CEC
:1072C0008180002201210460C0E902225DF8044BA4
:1072D000817170476C8E0300002210B4044C04606E
:1072E00081605DF8044B82718280C260704700BF8C
:1072F0006C8E03002DE9F047857982B0002D47D1CF
:10730000C7680646002F47D010200AF07BFE824651
:1073100038460FF032FA441E30B3DFF88490A846A6
:1073200004E00134023C1FD4102D1DD017F804C016
:10733000BCF12D0F07EB0402F3D099F80030ADF843
:1073400005808DF8043012F8013C8DF804301022CD
:10735000002101A88DF805C00FF0CAFA6B1C023C91
:107360000AF80500DDB2DFD5C6F808A0BAF1000FB3
:107370000ED0B11D5046FFF78BFFB168321D1020B3
:10738000FFF788FFB0FA80F0400902B0BDE8F0874F
:10739000012002B0BDE8F087D0F808A0E6E700BF02
:1073A000608E030038B50446FFF736FE04F1100086
:1073B000FFF784F904F12000FFF75CFE04F23C4083
:1073C000FFF7F8FD04F23C60FFF75CF904F5CF60CD
:1073D000FFF754F904F5D360FFF72CFE04F2EC60DC
:1073E000FFF7DAFD4FF480530025C4F80437164840
:1073F0001649174AC4F8080740F20113C4F80C17DD
:10740000C4F81027A4F81437A4F8165704F5E6605A
:10741000294650220EF0C6FA01224FF6FF73A4F857
:10742000185784F81A57C4F82057C4F82457C4F8DA
:107430002857C4F88457C4F8805784F82C27A4F838
:107440002E37204638BD00BF010A17000300010196
:1074500017000300132906D801F5E67150F8210042
:1074600008B1FFF747BD0020704700BFB0F82E07F6
:10747000704700BF01290CBFB0F80A07B0F8100729
:10748000704700BF13299ABF01F5E67150F821003B
:107490000020704710B5064C0021D4F824070BF0EB
:1074A00043F9D4F820070021BDE810400BF03CB9A7
:1074B000FC6700200148FFF775BF00BFFC67002094
:1074C0000020704730B585B0044641F60F0168468C
:1074D000FFF7F4FE69462046FFF7BEFE25466846E4
:1074E000FFF7DAFE084B45F8183B684642F61921CB
:1074F000FFF7E4FE69462846FFF7F8FB6846FFF70A
:10750000CBFE204605B030BD7C8E030030B583B085
:107510000446FFF785FE08B103B030BD05461221D1
:1075200004F118000190FFF727FC01982A46112169
:10753000FFF73AFC01980121FFF724FC019803B002
:10754000BDE83040FFF7EEB83CDF70473DDF7047E5
:1075500011DF704713DF7047B0DF7047B2DF70474D
:107560002DE9F0419EB0074604A8158814460E4642
:10757000FFF73EFCBDF81030AB4202D01EB0BDE8B4
:10758000F081A379043B022BF8D939465248FFF722
:1075900079FF4FF000080223394605463046CDE911
:1075A0000688CDE908888DF81830FFF763FC06A936
:1075B00000286AD03846ADF81C80FFF7CDFF247B49
:1075C000012CDBD1454E41463E2230460EF0EAF911
:1075D00023460DF10E02424938460824ADF80E400C
:1075E000FFF7BCFF68462946FFF78EFC0098306025
:1075F000BDF804309DF80620B271B3802846FFF72D
:107600007BFC002849D1354936484FF6FF740B46BC
:1076100001311B7883EA142383EA131242EA04221D
:1076200083EA131382EA033282EA431381429CB253
:10763000EDD12A4B2C489C870021FFF73BF82846C8
:10764000FFF772FCFF210020FFF780FFB12100202F
:10765000FFF77AFF002891D1FFF77AFF00288DD13C
:10766000224B4FF0FF324FF01024C3F88020C3F8B4
:1076700080216069FFF76EFF00287FF47FAF80F301
:107680001488606900F00CFE78E740F2FD1338467C
:10769000ADF81C30FFF760FF70E70AA92846FFF736
:1076A00063FC0028AFD01EAB13E903000B0C306065
:1076B000B180B37118AC0FCC0D4FC6F807000AACFF
:1076C0007960BA60FB600FCC18360FC694E80700EB
:1076D00086E8070097E700BFFC670020807F002056
:1076E000B47F0020BC7F0020386E002000E100E065
:1076F000877F002030B585B004460E496846FFF705
:10770000EBFD69462046FFF7A7FD25466846FFF7D3
:10771000C3FD094B45F8183B08496846FFF7DCFDF7
:1077200069462846FFF7E2FA6846FFF7B5FD2046AE
:1077300005B030BD888E0300D08E0300A88E0300F4
:1077400030B5B3B00546FFF76BFD18B104462046CF
:1077500033B030BD2D491CA8FFF7BEFD1CA906A8FB
:10776000FFF7C4FA1CA8FFF797FD06A8FFF700FB78
:1077700006A80421FFF700FB06A81421FFF700FB71
:1077800006A8FEF7CFFF044698B905F118001821A6
:107790000190FFF7F1FA01981721FFF7F1FA01982C
:1077A0001B490122FFF70EFB0198FEF7BBFF0446C1
:1077B00028B106A8FEF79CFF204633B030BD15491E
:1077C00002A8FFF789FD02A91CA8FFF78FFA02A8FB
:1077D000FFF762FD1CA8FFF7CBFA02211CA8FFF7F8
:1077E000CBFA02211CA8FFF7CDFA1CA8FEF79AFFDE
:1077F000044618B901211CA8FFF71CFB1CA8FEF7C2
:1078000077FF06A8FEF774FFD6E700BF988E030047
:1078100061750200B88E030070B584B0044641F66D
:107820000A016846FFF74AFD69462046FFF714FD46
:107830006846FFF731FD20460E4B40F8183B2422E6
:1078400000210EF0AFF80C4E0C480D4AE062002308
:107850002364E36384F844301C2505211323204668
:10786000E66184F83D5084F84110226384F8423088
:1078700004B070BD208F0300DC8E0300FC8E03007B
:10788000048F03002DE9F0479AB00646FFF7C8FCC5
:107890008046002846D1336A002B4ED0736A002BF5
:1078A00056D0C6F5275909F1270906F1140406F147
:1078B000380706F13C0554F8043F04A873B3FFF7FA
:1078C000E5F92268B36B09EB05019A4289B2684673
:1078D00008BF42F65021FFF7F1FC694604A8FFF704
:1078E0003BFA6846FFF7D8FC04A8FFF741FA0221EB
:1078F00004A8FFF741FA297804A8FFF743FA04A87F
:10790000FEF710FF824604A8BAF1000F0ED12A78C4
:107910002168FFF773FA04A8FEF7EAFEBC4205F1FE
:107920000105C8D140461AB0BDE8F087FEF7E0FE79
:10793000D04640461AB0BDE8F0870DF0B7F80446CF
:107940000EF01BFF736A346286F83E00002BA8D14C
:107950000DF06CF804460EF010FF746286F83F00DC
:107960009FE700BFD0F8D830988980B2704700BF39
:1079700070B582B0064608461C460192FFF7F6F93C
:10798000019905462246D0F8D8000DF0FDFA844250
:1079900006D9D5F8F0301BB1211A89B23046984784
:1079A000D5F8E83023B1304602B0BDE87040184742
:1079B00002B070BD08B592B2D0F8D8000DF032FB1D
:1079C00008BD00BF00B583B0D0F8D8000DF10702A4
:1079D00000210DF063FB20B19DF8070003B05DF8B6
:1079E00004FB4FF0FF30F9E7D0F8D8000DF0BABA39
:1079F000D0F8C030988980B2704700BFD0F8C0007E
:107A00000DF0B0BA10B501680C4A8C69944282B08E
:107A10000BD1D0F8D80001220DF107010DF002FBC7
:107A200040B19DF8070002B010BD01220DF1070121
:107A3000A047F5E74FF0FF30F5E700BFB57902004A
:107A400000B583B0D0F8C0000DF1070200210DF0A1
:107A500025FB20B19DF8070003B05DF804FB4FF053
:107A6000FF30F9E710B550F8181C0D4A8C699442A4
:107A700082B00CD0183801220DF10701A04718B1CF
:107A80009DF8070002B010BD4FF0FF30FAE7012269
:107A90000DF10701D0F8C0000DF0C4FAEFE700BF08
:107AA000B57902002DE9F04F50F8183C83B0044638
:107AB0003F48D3F828800F461646FFF7D7FC3D4BCA
:107AC0009845054609D0A4F1180033463A462946A0
:107AD000C44603B0BDE8F04F604701463448FFF7A5
:107AE000D1FC8346002850D004F1100948462946AD
:107AF000FFF7C0F9002848D094F8CC30002B3CD0D8
:107B0000D4F8C800C8B31FFA86FA524639460DF0B9
:107B10003BFAD4F8C8309B89804658461FFA83FB4D
:107B2000FFF7F0F90338834525DB21482946FFF7A5
:107B3000A9FC50B3FFF7E6F9033882B21046019270
:107B40000AF060FA834600B3019AD4F8C800594697
:107B50000DF068FA0346F0B958460AF06DFA46454A
:107B600009D9AAEB08039BB207EB0802294648464D
:107B7000FFF7B0F958B1B04609E03A462946484601
:107B8000B3B2FFF7A7F90028F5D14FF0000840463F
:107B900003B0BDE8F08F5A4629464846FFF79AF9E8
:107BA000044658460AF048FA002CD8D1EDE700BF49
:107BB000FC670020D57F02002DE9F04150F8183C09
:107BC00084B004463B489E6A8DF80F10FFF74EFCC8
:107BD000394B9E42054609D0A4F1180029460123DD
:107BE0000DF10F02B04704B0BDE8F0810146314805
:107BF000FFF748FC064650B304F110073846294603
:107C0000FFF738F918B394F8CC30002B49D0D4F8EA
:107C1000C800002845D00DF10F0101220DF0B4F984
:107C2000D4F8C8309B89804630469EB2FFF76AF987
:107C3000033886420DDA0120D5E732462946384618
:107C4000FFF748F9044630460AF0F6F9F4B9002087
:107C5000C9E718482946FFF715FC0028F7D0FFF7B9
:107C600051F9C21E92B2104601920AF0CBF90646B3
:107C70000028ECD0019AD4F8C80031460DF0D2F9B2
:107C800003460028D9D130460AF0D6F9B8F1000FE2
:107C9000D1D10DF10F02294638460123FFF71AF919
:107CA000A1E72946384601230DF10F02FFF712F92B
:107CB00099E700BFFC670020D57F02002DE9F04165
:107CC00005683B4BAD6A82B09D428DF8072065D1B7
:107CD000044638480E46FFF7D5FB054600284FD02E
:107CE00004F1280738463146FFF7C4F8002847D08A
:107CF00094F8E430002B47D0D4F8E000002843D0BB
:107D00000DF1070101220DF03FF9D4F8E0309B8915
:107D1000804628469DB2FFF7F5F8C31E9D4244DB1E
:107D200024483146FFF7AEFB50B3FFF7EBF80338BA
:107D300082B2104600920AF065F9054600B3009A37
:107D4000D4F8E00029460DF06DF968B928460AF02C
:107D500073F9B8F1000F28D10DF10702314638460A
:107D60000123FFF7B7F80CE003462A4631463846B0
:107D7000FFF7B0F8044628460AF05EF9002CE8D177
:107D8000002002B0BDE8F0813146384601230DF1F4
:107D90000702FFF79FF802B0BDE8F08101230DF163
:107DA0000702A84702B0BDE8F0810120E9E700BF63
:107DB000D57F0200FC6700202DE9F04F036883B0F7
:107DC000044641489E6A88461746FFF74FFB3F4BE3
:107DD0009E42054661D101463B48FFF753FB0646EC
:107DE000002855D004F1280948462946FFF742F8F3
:107DF00000284DD094F8E430002B41D0D4F8E000B6
:107E000000283DD01FFA87FA524641460DF0BCF8D3
:107E1000D4F8E02003463046B2F80CB01E46FFF717
:107E200071F81FFA8BFB0338834524DB264829466B
:107E3000FFF728FB60B3FFF765F8033882B21046FE
:107E400001920AF0DFF8834610B3019AD4F8E000FB
:107E500059460DF0E7F848BB58460AF0EDF8B7422E
:107E600009D9AAEB06039BB208EB0602294648464D
:107E7000FFF730F868B13E46304603B0BDE8F08FFA
:107E8000424629464846BBB2FFF724F80028F2D103
:107E90000026304603B0BDE8F08F01463B4642461F
:107EA0002046B44603B0BDE8F04F604703465A464B
:107EB00029464846FFF70EF8044658460AF0BCF833
:107EC000002CCCD1E4E700BFFC670020D57F020086
:107ED0002DE9F041036882B004463C489E6A8DF863
:107EE0000710FFF7C3FA3A4B9E420546014663D19D
:107EF0003648FFF7C7FA064600284FD004F1280796
:107F000038462946FEF7B6FF002847D094F8E430FB
:107F1000002B47D0D4F8E000002843D00DF1070132
:107F200001220DF031F8D4F8E0309B8980463046CC
:107F30009EB2FEF7E7FFC31E9E4245DB234829465B
:107F4000FFF7A0FA50B3FEF7DDFF033882B2104608
:107F500000920AF057F8064600B3009AD4F8E00001
:107F600031460DF05FF868B930460AF065F8B8F1AF
:107F7000000F29D10DF10702294638460123FEF7EB
:107F8000A9FF0CE00346324629463846FEF7A2FF19
:107F9000044630460AF050F8002CE8D1002002B028
:107FA000BDE8F0812946384601230DF10702FEF7AE
:107FB00091FF02B0BDE8F081204601230DF10702D8
:107FC000B04702B0BDE8F0810120E8E7FC6700207F
:107FD000D57F02002DE9F04F044683B03848904623
:107FE0001F460E46FFF74EFA002856D004F1280926
:107FF000054631464846FEF73DFF00284DD094F82F
:10800000E430002B41D0D4F8E00000283DD01FFA26
:1080100087FA524641460CF0B7FFD4F8E0200346F9
:108020002846B2F80CB01D46FEF76CFF1FFA8BFB1A
:108030000338834524DB22483146FFF723FA60B337
:10804000FEF760FF033882B21046019209F0DAFFB2
:10805000834610B3019AD4F8E00059460CF0E2FFD1
:1080600000BB584609F0E8FFBD4209D2AAEB050360
:108070009BB208EB050231464846FEF72BFF68B17C
:108080003D46284603B0BDE8F08F4246314648469B
:10809000BBB2FEF71FFF0028F2D10025284603B02F
:1080A000BDE8F08F03465A4631464846FEF712FFB8
:1080B0000446584609F0C0FF002CD5D1EDE700BFBB
:1080C000FC67002070B584B004460E4668461E4921
:1080D000FFF702F969462046FFF7BEF86846FFF74A
:1080E000DBF81A4B1A4903F10802002548334FF414
:1080F0007A70C4E90635226020626846FFF7ECF822
:10810000694604F12800FEF7F1FD6846FFF7C4F860
:1081100010496846FFF7E0F8694604F18000FEF771
:10812000E5FD6846FFF7B8F82046C4E93A55C4F8BB
:10813000D850A4F8DC60C4F8F050C4F8E05084F8DB
:10814000E45004B070BD00BF548F0300648F03007F
:10815000448F0300348F030010B50D4B0446D0F854
:10816000E00023604033A36110B103685B68984767
:1081700004F18000FEF7BCFA04F12800FEF7B8FA1B
:108180002046044B40F8083BFFF786F8204610BD18
:108190006C8F0300548E030010B50F4B0446D0F8CB
:1081A000E00023604033A36110B103685B68984727
:1081B00004F18000FEF79CFA04F12800FEF798FA1B
:1081C0002046064B40F8083BFFF766F820460CF0C7
:1081D0003BFE204610BD00BF6C8F0300548E030091
:1081E00070B5044682B018200CF02CFE0022054623
:1081F00001210CF097FE2846B4F8DC10C4F8D850E2
:108200000CF0A2FE2046FFF70BF8054610B12846F9
:1082100002B070BD01211E48FFF72CF904F12806B9
:1082200003461021304601961E46FEF7A5FD2A465C
:1082300001981121FEF7B8FD01983146FEF7A0FD27
:1082400001981449FEF7D2FD0198FEF76BFA054636
:108250000028DCD104F180000C210190FEF78CFD98
:1082600001980D490122FEF7A5FD1122019829462A
:10827000FEF79AFD01983146FEF782FD0198074905
:10828000FEF7B4FD019802B0BDE87040FEF74ABAAF
:10829000FC6700202C8F030071790200308F0300EF
:1082A000F0B40346186880F308885868FF2464B265
:1082B000EFF30585002D01D1A64600472546064669
:1082C00021273FBAF0B40024002500260027F0B48F
:1082D000F92040B2004700BFF0BC704700220121E6
:1082E0004270C0E901220170C2818281704700BFE3
:1082F0002DE9F043D1B00B78032B04AF0D460446B3
:10830000904668D95A08022A5ED14F4A4F49504BCD
:10831000DFF84891012818BF11460022381D04F0EB
:10832000F7FE4B4907F1680004F028FE07F1CC0680
:1083300011E00246414607F1680004F011FF08F120
:10834000380229464846FEF7A9FE044678BB07F1E5
:10835000680004F025FF0022391D304604F052FF6A
:1083600007F1D0000DC8D7F8DC10D7F8E4407B67E0
:10837000D7F8E83097F8E0C0F8663A67B967412265
:1083800007F1EC0107F18800C7E9204387F87CC0BA
:108390000DF0E0FA07F1680004F02EFF044607F143
:1083A000680044B104F08AFD5028D0D1C1E707F13C
:1083B000680004F0F5FE381D04F0F2FE204607F5D3
:1083C0009A77BD46BDE8F0830024204607F59A77EA
:1083D000BD46BDE8F083E9468CB08979AB786A7810
:1083E000039169790291297901911A4E1A49E87825
:1083F000009004AD012C08BF3146284607F1CC0699
:108400000EF066F91249304604F0B8FD29463046B0
:10841000002204F061FE044650B90024304604F006
:10842000BFFE2046CD4607F59A77BD46BDE8F083EE
:10843000304604F043FD021EEFDD92B24146304665
:1084400004F08EFEEAE700BFDC8F0300C88F030054
:10845000B87C0020F08F0300209003001C680020EF
:1084600010B5044C204600F007F8002384F8E830EB
:1084700010BD00BF846F0020002280F8E420704708
:1084800000220260704700BF08B5002002F0C2FB66
:1084900000B108BD024B1B68DB07FAD500BE08BD62
:1084A000F0ED00E002F0B0BBC378828803F0030077
:1084B0000228C2F30A0205D0032819D0012807D0E8
:1084C0000020704702291CD0402A09D8012070479B
:1084D000022940F2FF3308BF4FF480639342F6D283
:1084E0000A4B186810F00100F1D000BE0020704760
:1084F00002290CBF4FF4806340239342F0D3012044
:10850000E5E7B2F5007FE1D0EAE700BFF0ED00E07B
:108510000A44914216D230B44C78052C05D00C7820
:1085200021448A42F8D830BC70478C7804F07F052B
:1085300000EB4505E4092B550C7821448A42EBD821
:1085400030BC7047704700BF0146014800F056BA82
:108550009070002038B500F097F940B1002405462E
:108560002046013400F0C8FDE0B28542F9D838BD9C
:1085700070B592B01D460C46164601A84222002155
:108580000DF010FA412D5CD9631C0222DBB28DF88C
:1085900006408DF80E408DF8264040F6083540F232
:1085A00002248DF81E308DF827308DF83130ADF86B
:1085B00004508DF807208DF812208DF833208DF8A7
:1085C0003B20ADF80840204A069240F201250523E1
:1085D0002424ADF810508DF815308DF81640042382
:1085E0001A4C8DF81F30012540F224628DF81C5082
:1085F0008DF830300894ADF82420154D0A950823E5
:108600004FF411640A228DF82C30ADF82E4040232F
:108610008DF834200F4C8DF83C3001A9304640F2E3
:10862000075540F209464222ADF80C60ADF83850CB
:108630008DF84330CDF83F400DF08CF9422012B058
:1086400070BD002012B070BD200105242402020577
:108650000705800307058002007EFF280AD010B5B9
:1086600000F0F8FC044608B1204610BD0CF004FCF4
:10867000204610BD00207047007EFF280ED000B5B8
:1086800083B00DF1070100F02DFD20B19DF807002A
:1086900003B05DF804FB4FF0FF30F9E74FF0FF3017
:1086A000704700BF007EFF280FD000B583B00122C5
:1086B0000DF1070100F0DAFC20B19DF8070003B0CE
:1086C0005DF804FB4FF0FF30F9E74FF0FF307047E3
:1086D000007EFF2801D000F00FBD7047007EFF280C
:1086E00001D000F069BD0020704700BFF8B5064614
:1086F000007EFF281CD017465AB10D46144600F0E4
:1087000083FC2946224680B1307E00F039FD241AD0
:1087100001D13846F8BD05440CF0AEFB307E00F0C8
:1087200073FC294622460028EED13F1B3846F1E76C
:108730000020F8BD70B50368184A5B6882B09342A8
:108740008DF8071021D10546007EFF2823D000F0C8
:108750005BFC0DF1070601243146224688B1287ED4
:1087600000F00EFD241A02D1012002B070BD0644B3
:108770000CF082FB287E00F047FC314622460028A0
:10878000EDD1C4F1010002B070BD01220DF107016D
:10879000984702B070BD002002B070BDED860200A7
:1087A00070B592B01D460C46164601A84222002123
:1087B0000DF0F8F8412D5CD9631C0222DBB28DF874
:1087C00006408DF80E408DF8264040F6083540F200
:1087D00002248DF81E308DF827308DF83130ADF839
:1087E00004508DF807208DF812208DF833208DF875
:1087F0003B20ADF80840204A069240F201250523AF
:108800002424ADF810508DF815308DF8164004234F
:108810001A4C8DF81F30012540F224628DF81C504F
:108820008DF830300894ADF82420154D0A950823B2
:108830004FF411640A228DF82C30ADF82E404023FD
:108840008DF834200F4C8DF83C3001A9304640F2B1
:10885000075540F209464222ADF80C60ADF8385099
:108860008DF84330CDF83F400DF074F8422012B03F
:1088700070BD002012B070BD200105242402020545
:108880000705800307058002014B1878704700BF79
:108890008C700020037EFF2B02D1074B1A7802B1A7
:1088A0007047064902764161012200F11001044837
:1088B0001A7000F043B800BF8C7000205090030085
:1088C00090700020007EFF280ED000B583B000F02D
:1088D0009BFB10B103B05DF804FB01900CF0CCFAE7
:1088E000019803B05DF804FB0020704701B900B1A6
:1088F000704700B583B0694600F09CFB009BB3F560
:10890000966F02D003B05DF804FB00F029FBF9E795
:1089100030B4084B084AFF2002F108054FF47A747E
:108920000021303218761D609C601A6130BC59609D
:10893000596170477070002060900300F8B50546DB
:10894000B0F818016C69B5F81A310A680E4604448B
:108950001B1A176895F81C119BB222463046B8477F
:1089600050B3221894423CD2766806E0052B25D0FD
:1089700023780BB31C44A24233D96378042BF5D17E
:10898000E378002BF4D195F81C11013185F81C1106
:10899000002EEDD095F840110729E9D801F14807DC
:1089A00045F82760217295F84011013185F8401192
:1089B0001E462378002BDDD10020F8BD94F902304B
:1089C000002B08DB95F81E31591C85F81E11A17883
:1089D0000B43A370CCE795F81D31591C85F81D1188
:1089E000F5E7B5F818216B69104480B2A5F81801B5
:1089F000588095F81C211A710120F8BD2DE9F0432B
:108A0000284DDFF8B090AC4604468846BCE80F001D
:108A100089B003AF0FC703AE0FCE05F1140E254684
:108A20000FC59EE80700DCF800303B806B463668D7
:108A30002E8003C36B4603CB1B4EA06104F11803C9
:108A40004FF4807C0125E16184F82020636140F2CD
:108A5000EF2200231548C4F8189140F20947042179
:108A6000A4F81CC1C4F8280184F84011A280C4F8FD
:108A70002C31C4F83031C4F83431C4F83831C4F87A
:108A80003C314FF4E131C4E94876094884F81E517D
:108A9000A571FFF7FFFE404600F050FA284609B0E6
:108AA000BDE8F083B490030094900300DC8E0300D3
:108AB00070700020090000012DE9F04F04468BB0D2
:108AC000002900F09180032900F09C8090F840314B
:108AD0008B4240F2CB80483100F5A27550F82160FE
:108AE0003278002A00F0E78000231946374603E079
:108AF0000131725C7718CAB102F14000C0B201289E
:108B0000F6D9F42AF4D8100618D40120A2F5584753
:108B1000B7F5006FECD30144202B00F0C98025F895
:108B20001320725C01337718002AE5D1DBB20133E0
:108B30005B0043F4407304F5A17C5DE002F0E000CB
:108B4000C02800F0A18002F0F000E02800F0918041
:108B500002F0F800F028CBD102F007024FF0040E2B
:108B6000787800F0C00CBCF1800FC1D197F802C03A
:108B70000CF0C00800F03F00B8F1800F40EA82120C
:108B8000B6D10CF03F0CBEF1030F4CEA821275D047
:108B9000F87800F0C007802FAAD100F03F0040EA2B
:108BA0008212A2F58030B0F5801F38BF4FF0040E5E
:108BB0009ED2A2F55840B0F5006F99D3B2F5803F30
:108BC0007144A9D31E2BB1DCA2F580325800970A5C
:108BD0002844C2F30902A7F52057A2F5105225F840
:108BE00013704280023384E7D0F82031A0F844317A
:108BF00000F5A17C4FF44173A4F8423160460BB0FC
:108C0000BDE8F08F02A800F0ADF904F5A17C019059
:108C100020B300F1FF3B5FFA8BF3284F04F1040B04
:108C20000DF1080A0BEB830BA64606AE97E80F0082
:108C30001AF8018B86E80F0008F00F090AADA94465
:108C400005EB181819F8109C18F8103CAEF846916E
:108C5000AEF844310EF1040EDE45E7D1019B5B0016
:108C6000DBB201335B0043F44073C5E74FF0000C07
:108C7000C4E702F00F024FF0030E71E7A2F50060A7
:108C8000B0F5784F95D333E7787800F0C007802FA0
:108C900002F01F027FF42CAF00F03F0040EA821286
:108CA000A2F18000B0F5F06FBFF422AF02202DE7F3
:108CB00040F242333FE740F202333CE7A09003002A
:108CC0000048704790700020014B5869704700BF02
:108CD000907000200A4601460148FFF7EDBE00BF34
:108CE00090700020024B186800B10069704700BF07
:108CF0001472002030B40848BDF80850046844B12C
:108D0000646934B10846A44611461A462B4630BC65
:108D10006047002030BC70471472002030B408480F
:108D2000BDF80850046844B1A46934B10846A446AB
:108D300011461A462B4630BC604730BC704700BF16
:108D400014720020024B186808B190F85000704768
:108D5000187200202DE9F047244C2568002D42D0E0
:108D60001F4600EBC00305EB83030446D3F818A0AD
:108D700089469046C600BAF1000F30D050460DF03B
:108D8000FCFC0828024628BF0822344405EB840571
:108D9000D5E90764DFF85CC0154B002E08BF6646B6
:108DA00051464846002C08BF1C460CF0D3FD304607
:108DB0000DF0E3FC10280246314628BF1022404641
:108DC0000CF0C8FD20460DF0D8FC042802462146D0
:108DD000384628BF0422BDE8F0470CF0BBBDDFF8E1
:108DE00018A00822D1E7BDE8F08700BF1872002064
:108DF000E4900300D490030094900300F8B50B4F67
:108E00003B688BB100EBC00503EB850504466A693E
:108E1000C6001AB190473B6885F82A00344403EB3A
:108E2000840393F82A00F8BD1846F8BD1872002094
:108E3000074B1B685BB100EBC00003EB800010B474
:108E4000038D446A0C605DF8044B138070477047D3
:108E5000187200200A781E2A01D10020704710B530
:108E600020221C460521002300F078FF204610BD7B
:108E700030B4094C029A256855B1044604EBC40489
:108E800005EB840408461946A3680BB130BC1847AB
:108E90004FF0FF3030BC70471872002030B4094CDE
:108EA000029A256855B1044604EBC40405EB84041A
:108EB00008461946E3680BB130BC18474FF0FF3045
:108EC00030BC704718720020054B1B6833B100EBB3
:108ED000C00003EB8000036903B11847704700BF6F
:108EE0001872002000B5104B402283B083F827236E
:108EF000FFF7CAFA4FF080430024D3F838548DF8B6
:108F0000004068460BF0B2FA084B019301A80BF041
:108F1000D9FA0BF0E3FAEB0702D401F009FFFCE702
:108F2000204603F053FDF8E700E100E0318F020036
:108F300003F04CBD002003F029BA00BF00B50023A8
:108F400083B00322CDE9002303490448C8220AF074
:108F500091F803B05DF804FBE8900300E58E020091
:108F60000BF00ABE4FF08052536E1BBA0360136EB3
:108F70001BBA43600820704700487047F090030018
:108F800070B51F4D2B68B3B199B91478C4F341146F
:108F9000012C0BD0022C07D15478012C0DD0022CBF
:108FA00007D19388072B21D0084670BD517822291C
:108FB0000CD0012070BD184670BDDC69F4B1237877
:108FC00011462246BDE8704002F070BE518800395B
:108FD00018BF01211976114602F04EFE2A68136A65
:108FE000002BE6D0107E9847204670BD054C1146F8
:108FF00023892246BDE8704002F058BE204670BD6D
:109000001C7200204C60002010B5044601F0ECFDFD
:1090100008B9002010BD01F0EFFD0028F9D1044887
:109020004FF45A7303FB0400007900F0010010BDF7
:1090300020720020064B4FF45A7202FB003050F8A9
:10904000063F0B60838882798A718B80704700BFEE
:109050002072002008B5044B4FF45A7202FB003016
:10906000103001F025FC08BD207200202DE9F041F0
:109070004FF45A7505FB00F5194F05F110043C44F7
:1090800092B2204601F040FC0646204601F02AFC40
:109090003F2802D83046BDE8F08107EB05080020E4
:1090A00098F8031002F01EFD0028F3D0204601F0CE
:1090B00019FC3F280BD905F53A7298F803103A4489
:1090C0004023002002F072FD3046BDE8F08198F8A0
:1090D0000310002002F03EFD3046BDE8F08100BFE5
:1090E00020720020034B4FF45A7202FB0030103004
:1090F00001F07CBC207200202DE9F041044601F013
:1091000073FD10B90020BDE8F08101F075FD064641
:109110000028F7D14FF45A71DFF8608001FB04F4A6
:1091200004F12C054544284601F0C2FB0028E9D093
:1091300008EB04073046B97802F0D4FC0028E1D0EF
:1091400004F54A74444428462146402201F0DCFBE1
:10915000054660B1B978224630462B4602F026FD1E
:1091600040B9054B1B68DB07CCD500BECBE7B9780F
:1091700002F0F0FC2846C6E7F0ED00E02072002087
:1091800038B50C4B4FF45A7404FB00342C3492B2B3
:109190000546204601F06AFC034620461C4601F0C5
:1091A00087FB3F2801D8204638BD2846FFF7A4FF9B
:1091B000204638BD2072002008B5044B4FF45A7287
:1091C00002FB00302C3001F08DFB08BD2072002026
:1091D000F0B51C4C83B000214FF45A722046012593
:1091E0000E460CF0DFFBFF234FF4424204F148012E
:1091F0006371E2802B460827009604F110004FF4BB
:10920000807227732581668101F016FB2B464FF48F
:10921000807204F5A471009504F12C0001F00CFBA0
:1092200004F51271284609F093F904F526710346F6
:109230002846C4E9096309F08BF9C4E9100603B0B4
:10924000F0BD00BF2072002010B5094B002203F1D1
:109250002C0403F110001A601A7101F07DFC204605
:1092600001F07AFC20460121BDE8104001F09CBCD1
:10927000207200202DE9F0414B79022B82B002D1FF
:109280008B79022B04D00025284602B0BDE8F0817E
:10929000314FBB782BB1314B1B68DB07F3D500BED8
:1092A000F1E78B783B700C780C44064661782429F2
:1092B0004FF009050BD1082A02D80FE0AA420DD3BE
:1092C00023781C442B44617824299DB2F6D00529CB
:1092D0001BD0042902D163790A2B28D0204801F041
:1092E00001FB3F28D0D9F978002002F0FBFB0028D1
:1092F000CAD01B4801F0F6FA3F28F97813D9194A69
:109300004023002002F052FCBEE72146304602F026
:10931000C9FB0028BFD0A3787B7023781C442B4462
:1093200061789DB2D5E7002002F014FCACE70E4A4C
:1093300094F800800192022301320092304604EB3F
:1093400008011A4602F03AFB0028A4D005F10E03EA
:1093500018FA83F39DB2C1E720720020F0ED00E01F
:1093600030720020087500202272002038B5137872
:1093700003F06003202B0CD1264C938825789D4266
:1093800007D15378203B032B03D8DFE803F00915FE
:109390001E04002038BD71B3022931D0012038BD30
:1093A00061B10229FAD11C4B002BF7D01B490020D8
:1093B000AFF30080012038BD0029EFD1114607230B
:1093C000164A02F073FC012038BDA1B10229E5D193
:1093D0005588257105F00104114884F0010101F060
:1093E000E3FB104B002BD9D0C5F3400221460020EF
:1093F000FFF77CFAD2E7114602F03EFC012038BDAF
:10940000094B002BCAD051880020AFF30080012007
:1094100038BD00BF2072002000000000267200202E
:109420004C720020ED880200000000002DE9F0479A
:10943000574DEA788A420C4607461E465CD19AB2DE
:1094400005F53A7105F1100001F010FB514BD3B155
:109450006B79FF2B17D0B6B105F2E72808EB060AA7
:10946000A8F2D72902E0D0450DD06B7918F8012F6A
:109470009A42F8D1484601F02BFA0028F3D16979D5
:10948000AFF30080EFE7444B23B1444801F020FAEA
:10949000002870D0414801F025FA3F2805D9E97825
:1094A000002002F01FFB002858D1AB789C4203D06B
:1094B00001242046BDE8F087394B13B10020AFF3FB
:1094C000008001F091FB20BB364801F0F1F9002843
:1094D000EED1002EECD016F03F06E9D1A97838463F
:1094E00002F000FB04460028E2D0A9783846334653
:1094F000324602F05BFBDCE7AB788B42DCD02A4BD8
:109500001C6814F00104D4D000BE00242046BDE83D
:10951000F08701F071FB04460028D5D1214801F005
:10952000C7F90028D0D0A978204602F0DBFA00283D
:10953000CAD01E494022A1F53F7001F0E5F903466B
:1095400008B31A4AA978204602F030FB0028AFD1B0
:10955000154B1B68DB07B7D500BEB5E70F4801F018
:10956000C1F93F280AD94023114AE978002002F0C6
:109570001DFBAB789AE7AFF300808BE7E97800201A
:1095800002F0E8FA91E7A97802F0E4FA9CE700BF5C
:109590002072002000000000000000003072002057
:1095A000000000004C720020F0ED00E04875002043
:1095B0000875002002488C2200210CF0F3B900BF8E
:1095C0008875002002488C2200210CF0EBB900BF06
:1095D000887500202DE9F0414B79032B82B011D121
:1095E0000F79C7EBC7051235ADB295420C4604D8CA
:1095F000DFF89C8098F8011049B1234B1B68DA070B
:1096000000D500BE0025284602B0BDE8F08194F8E0
:1096100000C004EB0C0292F801E0BEF1210FECD186
:10962000C8F8882014F80C1008F1010E08F1020C9B
:109630001144CDE900CE3A46064602F0BFF90028B3
:10964000DBD0A37998F80210012B04BFE37988F8E6
:1096500003300122D8F8883088F80420A278B3F8C3
:10966000073088F80020A8F806300029CBD0074A38
:109670003046402302F09AFA0028C4D1024B1B68FE
:10968000DB07C0D500BEBEE7F0ED00E0D0750020DE
:1096900088750020F0B51446127802F01F05012DE0
:1096A00083B00FD10B467149A78891F800C0FFB273
:1096B000BC4507D112F06002064606D183BB627832
:1096C000062A30D0002003B0F0BD202AFAD16278FB
:1096D000013A0A2AF6D801A050F822F0B197020008
:1096E0009D97020089970200C5960200C596020068
:1096F000C5960200C5960200C59602007197020049
:109700004B9702000997020063B3022B08D16388CC
:10971000574ADBB20B711AB119460020AFF3008033
:10972000012003B0F0BD6288120A212A65D0222AE6
:10973000C8D11846FFF7D6FA4C490246CB883046C6
:10974000214602F0B3FA2846BDE7002BE8D1628833
:109750004848120A4A7128B111461846AFF30080F2
:109760000028AFD02146304602F086FA0120AAE751
:10977000002B4ED1E388402BA4D83F4A21463046E7
:1097800002F094FA01209EE7002BC9D13B4A214602
:109790003046012302F08AFA012094E7002BBFD162
:1097A000374A21463046012302F080FA01208AE739
:1097B000002BB5D1E5886088402D4FEA10222F4656
:1097C00028BF402710F0FF003ED0012D46D9013FB1
:1097D00008722C49BFB201250B46009701460020B4
:1097E000FFF788FA2B189BB28BBB274A1268D20767
:1097F0007FF568AF00BE184665E7D1F88820002ADB
:109800003FF460AF1378214603B0BDE8F04002F0AA
:109810004DBA022B84D1E5886388402D2C4628BFA1
:10982000402413F0FF004FEA132205D0012D03D985
:1098300091F84830834214D00F4B00940146002029
:10984000FFF76CFA01203EE710491D46C4E70F4AB6
:109850002146304602F02AFA012034E70B491D4622
:10986000BAE7013C0A4BA4B2E7E700BF88750020C5
:109870000000000000000000D07500208C75002062
:109880008D75002091750020F0ED00E090750020AE
:10989000D175002030B51C4CA2788A4283B00CD11F
:1098A0006178914217D1194A22B11949DAB20020E0
:1098B000AFF30080012003B030BD62788A42F2D05D
:1098C000144B1B68DB0703D500BE002003B030BD7E
:1098D000002003B030BD00229BB211460546009324
:1098E000104604F14803FFF719FAA17828464023EF
:1098F00004F1480202F05AF90028DBD1054B1B683D
:10990000DA07E5D500BED6E7887500200000000024
:1099100090750020F0ED00E070B500F12C050446D4
:10992000284600F0C5FF08B9002070BD617800200E
:1099300002F0D8F80028F7D004F50A762846314618
:10994000402200F0E1FF054660B1034661783246EF
:10995000002002F02BF940B9054B1B68DB07E3D56B
:1099600000BE70BD617802F0F5F8284670BD00BFFA
:10997000F0ED00E030B5164C83B000210D464FF4F9
:109980001A7220460CF00EF804F1480104F11000A0
:1099900000950123802200F04FFF802204F1C801CE
:1099A0000123009504F12C0000F046FF04F5A4719A
:1099B000012008F0CDFD04F5CC7103460120C4E977
:1099C000095308F0C5FDC4E9100503B030BD00BF60
:1099D000C097002010B5084C002304F11000C4E922
:1099E0000033C4E9023301F0B7F804F12C00BDE8FC
:1099F000104001F0B1B800BFC09700202DE9F0433E
:109A00004B79012B83B002D18B79012B04D0002537
:109A1000284603B0BDE8F083CB79002BF7D10B7853
:109A2000CC1806466578242D99B20BD1914202D903
:109A3000EDE78A42EBD323781C440B446578242D50
:109A400099B2F6D0042DE2D16379012BDFD1A3794D
:109A5000032BDCD1E579002DD9D1DFF8CC8098F843
:109A6000010098F8023050EA030905D02B4B1B681F
:109A7000DB07CCD500BECBE7A37888F80030277889
:109A80002079CB199DB2274430B922E03B7881453B
:109A90001D44ADB21F441CD2AA421AD37B78052BB9
:109AA000F4D139463046019201F0FCFF019A68B3C7
:109AB000BB782079D90914BF88F8013088F80230C2
:109AC000397809F101030D445FFA83F9ADB20F440F
:109AD000DCE7134800F006FF3F2899D998F80210F8
:109AE000002001F0FFFF002892D00D4800F0FAFEA0
:109AF0003F2898F8021005D90A4A4023002002F0B6
:109B000055F885E7002002F025F881E7034B1B6834
:109B1000DA077FF57CAF00BE054679E7F0ED00E09F
:109B2000D0970020A8990020C097002000207047FF
:109B3000F8B52D4DAA788A421E4619D19AB205F57C
:109B4000F47105F1100000F091FF284B13B10020D3
:109B5000AFF30080264800F0C5FE3F2805D9A9785C
:109B6000002001F0BFFF044668BB01242046F8BD79
:109B70006B788B4208D01F4B1C6814F00104F5D0A1
:109B800000BE00242046F8BD07462846FFF7C4FE65
:109B90000028EAD105F12C0000F08AFE0028E4D16B
:109BA000002EE2D016F03F06DFD16978384601F08A
:109BB00099FF04460028D8D06978384633463246A3
:109BC00001F0F4FFD2E70A4800F08CFE3F28A978A4
:109BD00005D9094A4023002001F0E8FFC6E700202C
:109BE00001F0B8FFC2E700BFC097002000000000EE
:109BF000D0970020F0ED00E0A899002070B52E4C21
:109C0000E28AA36852BA92B282B0054612B1B3FB9F
:109C1000F2F292B2A06BD4F81110B0FBF2F61B1A5C
:109C2000B3F5007F28BF4FF4007309BA009302FB1D
:109C30001602224B607B3144FFF71AF9031E13DB37
:109C400009D094F82E101D4A9BB2284601F0AEFFB1
:109C500058B302B070BD94F82E10009328461A46EF
:109C600001F078FE02B070BDA268A36B43F203302E
:109C70000021D31AA08784F83E1001200221A3629C
:109C800084F82C0084F83010002AE2D0002BE0D0B9
:109C9000237BDB0914BF94F82E1094F82F1028466C
:109CA00002B0BDE8704001F0BDBF054B1B68DB078B
:109CB000CFD500BECDE700BF147800201476002079
:109CC000F0ED00E038B5214B214C05461BB1607B1F
:109CD000AFF30080B0B1A06BA36894F82F101D4AB9
:109CE0001B1AB3F5007F28BF4FF4007328469BB2C0
:109CF00001F05CFF00B138BD174B1B68DB07FAD5DC
:109D000000BE38BDA26BA16884F83E008B1A42F2F7
:109D100007720120A2870222A36284F82C0084F833
:109D200030200029E7D0002BE5D0237BDB0906D0CB
:109D300094F82E102846BDE8384001F073BF94F81F
:109D40002F102846BDE8384001F06CBF000000002D
:109D50001478002014760020F0ED00E0044880F82C
:109D60003C1080F83D2080F83E300120704700BF55
:109D7000147800200248402200210BF013BE00BFDF
:109D8000147800200248402200210BF00BBE00BFD7
:109D9000147800204B79082B01D0002070478B7974
:109DA000062BFAD1CB79502BF7D1162A06D81C4BAB
:109DB0001B68D907F1D500BE0020704770B5194D5A
:109DC0008B7885F82D300B7882B005F12F0205F1E4
:109DD0002E0619440223CDE900261A46044601F056
:109DE000EDFD30B90E4A1268D2070FD500BE02B0A1
:109DF00070BD204695F82F1000241F232A4685F8B1
:109E0000304001F0D3FE20B11720F0E7002002B06F
:109E100070BD034B1B68DB07F6D500BE1720E6E7D5
:109E2000F0ED00E014780020002961D170B51378BE
:109E300003F07F05022D84B0044620D003F06003B8
:109E4000202B02D0002004B070BD5378FE2B34D0FC
:109E5000FF2BF7D15388002BF4D1D688B3B2002B57
:109E6000F0D13B4D11462046AE87C5E90D3385F84C
:109E7000303085F83E3001F0FFFE0120E3E75578F1
:109E8000012DDBD15388002BDCD1314E938896F81D
:109E90003020042ADBB243D096F82E10994229D004
:109EA00096F82F509D4205D122B9294601F0ACFE0B
:109EB00000283AD0012004B070BD5388002BC1D1D6
:109EC000D0880128BED1234B8DF80F002BB1019211
:109ED000FEF738FF019A0028B4D0451E11462046EF
:109EE00001230DF10F028DF80F5001F0DFFEE1E7C5
:109EF00001207047022ADDD1B26BB3689B1A03249C
:109F0000B36206F120020D2386F8304001F04EFEC8
:109F10000028CFD1104B1B68DB0793D500BE92E71A
:109F2000194601F07FFE28468DE72946204601F0BC
:109F300095FE0028BED1002386F8303096F82F1009
:109F4000034A20461F2301F031FE0028B2D1E1E789
:109F500014780020458D0200F0ED00E0F0B5A74C2C
:109F600094F83050012D8FB01E4607466FD0032D58
:109F700046D02DB1022D00F0898001200FB0F0BD38
:109F800094F82F308B42F8D11F2E40F09E809C4BCE
:109F900022689A4240F09980E37B9A4A6068A56201
:109FA00084F82C50A5632262A56860620122282BE8
:109FB00084F83020656300F0DA802A2B00F09F825D
:109FC000002D00F02981227BD20940F02581B5F5D2
:109FD000007F40F2F78294F83C30A5620120022213
:109FE00084F82C0084F8302023B942F2050284F86A
:109FF0003E30A287384601F015FE94F83050B9E79C
:10A0000094F82E308B42B8D10D2EB6D1E37B282B9D
:10A0100000F06D822A2B00F062827B4B23B1607BC3
:10A0200004F10F01AFF30080002084F83000734A80
:10A0300094F82F101F23384601F0B8FD0028DCD11A
:10A04000724B1B68DA0700F19080002096E7E37BF3
:10A05000282B12D02A2B59D0A36B227B3344D20950
:10A06000A36347D0626B9A420DD9684B1B68DB072C
:10A07000C3D500BE94F830507CE7D4E90D233344B7
:10A080009342A3636CD3022384F8303094F82E10EB
:10A09000384601F0E3FD00287FF46FAFA368A26BA0
:10A0A000934202D9217BC9091ED19B1A0325A362C1
:10A0B00094F82E10564A84F8305038460D2301F09B
:10A0C00075FD00287FF459AFBAE7042394F82E10E9
:10A0D00084F83030384601F0A5FD384694F82F104A
:10A0E00001F0A0FD002049E794F82E10384601F059
:10A0F00099FD42E7A38E474A607B04F10F01FEF70A
:10A10000A9FE0028C0F2C981A36BABE7E08A40BA80
:10A1100080B218B1A368B3FBF0F080B2D4F811108C
:10A12000A26B3C4DB2FBF0F309BA00FB13221944B9
:10A13000607B00962B46FEF7B1FE0028C0F20A8233
:10A14000864252D9002840F03382002394F82F1021
:10A1500000933246384601F0FDFB94F8305009E791
:10A16000FFF74CFD94F8305004E700BE06E7E28AA2
:10A1700052BA92B29DB9002A85D094F83C3002229E
:10A18000002184F82C2084F83020A162002B7FF479
:10A190007DAF42F2050284F83E30A28776E7207B4D
:10A1A000C0090BD0002A00F0EE819542C0F0228257
:10A1B000282B3846D4D0FFF785FD1EE794F83C20C5
:10A1C000A562022384F82C3084F83030002A7FF412
:10A1D00011AF42F205020023A28784F83E30207BB3
:10A1E000C00900283FF406AF9DE1D4E90D233344B4
:10A1F0009342A363BFF447AF3846DCE714780020EE
:10A20000555342435553425300000000F0ED00E027
:10A210003478002014760020607B252B27D8DFE8D7
:10A2200013F03701260026000A012600260026002A
:10A2300026002600260026002600260026002600EE
:10A24000260026002600E90026002600260026001B
:10A25000260026002600CF00B50026002600260096
:10A2600026002600260026007B002600520094F8D7
:10A270003C30002B3AD1B04AB049ABB2FEF7EAFD10
:10A28000002833DB40F0C981A368002B3FF4FBAE0C
:10A29000A16B94F83C205B1A01200221A36284F890
:10A2A0002C0084F8301022B942F2050184F83E20D7
:10A2B000A187002B3FF4EAAE237BDB0940F033811A
:10A2C00094F82F1096E604AA05A9FEF7B1FD059BA8
:10A2D00023B1BDF81020002A40F0968194F83C305C
:10A2E00023B940F2024284F83E30A287A268A36BF1
:10A2F00094F83C100120D31A84F82C000220A362A9
:10A3000084F8300021B942F2050084F83E10A0879D
:10A31000002A3FF4BBAECCE705AD00230DF10E02E1
:10A3200004A96B600593AB60FEF782FD049A002AD6
:10A33000D4D0BDF80E30002BD0D012BA5BBA0820B2
:10A340000221ADF81E3006928DF817008DF81C1012
:10A3500095E80700784BA56883E807000C20002DDE
:10A3600040F03981A36B94F83C205B420121A36249
:10A37000022384F82C1084F83030002A7FF486AE53
:10A3800042F2050384F83E50A3877FE66C4B002B16
:10A390003FF47AAFE17CC1F3400301F00102090907
:10A3A000AFF3008000287FF46FAF94F83C30002BAF
:10A3B0009CD140F202420023A28784F83E3095E708
:10A3C000059B604A03F4000343F003030593002A4E
:10A3D00000F01881AFF300809DF81630564AA5684A
:10A3E00080F0010060F3C7138DF81630059B1360F1
:10A3F0000420B4E74FF020330022CDE90A33524D58
:10A40000069207A909AA0893079309930D930C9341
:10A4100005AE0DAB0595FEF79DFC0FCEDFF818C11C
:10A42000A568ACE80F000FCEACE80F003368CCF89D
:10A430000030242093E794F83C2094F83D0094F8F1
:10A440003E10DFF8F4C04FF0000E4FF00003CDE9EE
:10A4500005EECDE907EE62F303038DF81630F02226
:10A460000A23ADF824E08DF820008DF821108DF836
:10A4700014208DF81B3005AE0FCEACE80F0033680A
:10A48000A4F83CE084F83EE0ACF80030122066E727
:10A49000FEF7B4FC002888D0F6E6A268A36B94F817
:10A4A0003C0084F82C50D11A0225A16284F8305067
:10A4B00020B942F2050584F83E00A587002A3FF442
:10A4C000D1AD00293FF4CEAD237BDB0900F09480B1
:10A4D00094F82E10384601F0A5FBA36BC2E51B4B88
:10A4E000002B3FF4A1AD607BFEF7EEFC9CE5184B22
:10A4F000002B3FF499AD607BAFF3008094E5E28AD6
:10A5000052BA92B2002D3FF436AE207BC0093FF420
:10A5100049AE94F83C30A562022284F82C2084F8DD
:10A520003020002B7BD094F82E10384601F07AFBB7
:10A5300094F830501EE500BF1476002023780020E8
:10A54000000000000000000000800202C98E02002E
:10A5500000000000A36BA2683344D11A43F2033019
:10A56000A3630023A08784F83E3001200223A16268
:10A5700084F82C0084F83030002A3FF487AD00299D
:10A580003FF484AD98E6012294F83C3084F82C2006
:10A590000222A56284F83020002B7FF422AE42F222
:10A5A000050284F83E30A287002D3FF46FAD16E619
:10A5B000A36B361A0344291832462846A3630BF0CE
:10A5C000D7F9C2E5194AABB2384601F0EFFA0028D4
:10A5D0007FF413AD34E5A84228BF284683B26063F8
:10A5E000124A94F82E10384601F0E0FA00287FF461
:10A5F00004AD25E50222C7E794F82F10384601F094
:10A6000011FB81E50120E7E60849A568013B1BBA7B
:10A6100012BAC1E900320820A1E6A5689FE642F21D
:10A62000050284F83E30A287D9E500BF14760020E9
:10A6300030B5154C83B000210D464FF4EE72204624
:10A640000BF0B0F904F13C01201D009501234022DC
:10A6500000F0F2F8402204F17C010123009504F19E
:10A66000200000F0E9F804F1BC01012007F070FFC0
:10A6700004F5867103460120C4E9065307F068FF1C
:10A68000C4E90D0503B030BD5478002010B5064C68
:10A690002046002340F8043B00F05EFA04F120005D
:10A6A000BDE8104000F058BA547800204B79FF2BD9
:10A6B00001D0002070472DE9F041324C6678A37834
:10A6C000334382B003D0002002B0BDE8F0810D78A2
:10A6D0008B782370804608790F460D4408B36B7859
:10A6E000052B0AD0AB189D4202D306E0AB4204D939
:10A6F00029780D4469780529F8D1234E0196731CF9
:10A700000246009329460223404601F057F90346CA
:10A71000A8B13B79A178C3EBC3031D4431B961787B
:10A72000A1B9E81B80B202B0BDE8F081402306F277
:10A730005B12404601F03AFA03460028EFD1134A73
:10A740001268D207BFD500BE1846BDE7002001F051
:10A750005BFA06460028E4D10D494022A1F5BE70FF
:10A7600000F0D2F80028DCD003466178084A304671
:10A7700001F01CFA0028D4D1044B1B68DB07D0D5AC
:10A7800000BECEE75478002055780020F0ED00E0C0
:10A79000F079002038B5234CA2788A420AD0637839
:10A7A0008B424FF0000004D101F02EFA054600B3B1
:10A7B000012038BD9AB204F5AE71201D00F056F9A3
:10A7C000194B13B10020AFF30080A178002001F0F5
:10A7D0001BFA05460028EBD1144800F083F83F2807
:10A7E000E6D9A178124A2846402301F0DFF901207A
:10A7F00038BD402204F5CE7104F1200000F084F849
:10A800000028D5D003466178284604F5CE7201F0C1
:10A81000CDF90028CCD1074B1B68DB07C8D500BE9B
:10A82000C6E700BF547800200000000058780020E0
:10A83000B0790020F0ED00E02DE9F041B2F5004FD5
:10A840009DF8188030D80446406915460E461F46CC
:10A8500018B14FF0FF3108F0F3F8A06918B14FF0CC
:10A86000FF3108F0EDF86A0092B260692660511E6F
:10A8700000235242E381A580E78084F80880A1810B
:10A880006281238218B11A46194607F0B1FCA0690B
:10A8900038B100231A46194607F0AAFC0120BDE88A
:10A8A000F0810120BDE8F0810020BDE8F08100BF0B
:10A8B000C189028A89B292B28B1A91429BB202D2AA
:10A8C00042899B1A9BB28088984228BF18467047DD
:10A8D000C289038A90B29BB2C01AB0FA80F04009D4
:10A8E000704700BFC189028A89B292B28B1A914225
:10A8F00010B49BB2848802D240891B1A9BB2E01A22
:10A9000080B25DF8044B70472DE9F0470546806939
:10A910008846914618B14FF0FF3108F091F8EB8965
:10A920002C8A9BB2A4B21E1BA342B6B202D26A8981
:10A93000B61AB6B2AF88B74209D2BB4249D26A89C9
:10A940003A449B1A9AB22A822C8A3E46A4B2002E1E
:10A9500045D04E4528BF4E46A74203D8E41BA4B2BB
:10A96000A742FBD9A7EB0409B5F806A029681FFA8E
:10A9700089F94E450AFB041125D919FB0AF91FFA7A
:10A9800089F94A4640460AF0E5FFF21B224412FBD1
:10A990000AF2296892B208EB09000AF0DBFF2A8A62
:10A9A00092B293199BB29A421BD96A8913449BB203
:10A9B000A8692B8220B100231A46194607F018FC1B
:10A9C0003046BDE8F0870AFB06F240460AF0C2FFB7
:10A9D000E5E7A989DA1B92B29142B4D2AFE72B8A9C
:10A9E0009BB2AA899A42E3D2DFE700BF70B5044662
:10A9F00080690E4618B14FF0FF3108F021F8E28966
:10AA0000238A92B29BB2D01A9A4280B202D2618952
:10AA1000401A80B2A588854207D2AA421DD2618918
:10AA20002944521A91B221822846E0B1AB4203D3A5
:10AA30005B1B9BB29D42FBD9E2882168304602FB3A
:10AA400003110AF087FF0125A06920B100231A46EF
:10AA5000194607F0CDFB284670BDA089511B89B26D
:10AA60008842E0D2DBE70546EEE700BF2DE9F84F6C
:10AA70001546002A3FD004464069884618B14FF079
:10AA8000FF3107F0DDFFE789237A218ABFB289B25F
:10AA9000A3BB7A1A8F42A38892B252D39A1A92B267
:10AAA000954228BF1546A5EB0309B4F806A01FFA86
:10AAB00089F99F423E4603D3F61AB6B29E42FBD2B4
:10AAC0009B1B20689BB29D420AFB060027D80AFB0D
:10AAD00005F241460AF03EFFEB199BB29F421AD89D
:10AAE000A2899A4217D36069E38120B100231A46F4
:10AAF000194607F07DFB2846BDE8F88FA3889D42E4
:10AB000023D3B4F806A0ED1A0AFB05880F461D46AC
:10AB10004FF00009CDE7628913449BB2E3E713FBD2
:10AB20000AF31FFA83FB5A4641464E440AF012FFCD
:10AB300016FB0AF2206808EB0B0192B20AF00AFF3A
:10AB4000CAE76189521A92B2A8E7A5EB0309B4F8E3
:10AB500006A01FFA89F9ACE710B50446406918B1A0
:10AB60004FF0FF3107F06CFFA06918B14FF0FF31D3
:10AB700007F066FFA38860695B009BB2591E5A42CA
:10AB80000023E381A1816281238218B11A4619460C
:10AB900007F02EFBA06920B100231A46194607F0E2
:10ABA00027FB012010BD00BF38B5044640690D46A3
:10ABB00018B14FF0FF3107F043FFA06918B14FF013
:10ABC000FF3107F03DFF6069257220B100231A466E
:10ABD000194607F00DFBA06920B100231A4619465B
:10ABE00007F006FB012038BD024B5878003818BF2B
:10ABF00001207047887A0020024B1878C0F380004B
:10AC0000704700BF887A0020014B1878704700BF5A
:10AC1000BF7A00202DE9F0433A4D2E7883B01EB163
:10AC2000304603B0BDE8F08337223146044636484B
:10AC30000AF0B8FE3549012007F08AFC344B186051
:10AC400000283BD033490B464A6833F8080B498843
:10AC5000009607F029FA304B186078B32F4F27B1D0
:10AC60002F48AFF300802F4B18602D4E337877B309
:10AC70002D4FDFF8B0804FF000094B4537D8A9EBD6
:10AC80000303DBB2042B39D803EB430307EBC30305
:10AC90001B689847337809F101095FFA89F91A1D91
:10ACA0004A45EADA204601F06FF9204601F06EF9D4
:10ACB000012630462E7003B0BDE8F0831B4B1B68A5
:10ACC000DB07ADD500BE304603B0BDE8F083DFF84A
:10ACD000588001E0052F11D007EB4703013758F8E2
:10ACE00033309847337804339F42F3DDDAE7D8F8FE
:10ACF000003009EB490203EBC203C9E700231B68DC
:10AD0000FFDE00BFBF7A0020887A0020387A00205A
:10AD1000C07A002000610020C47A002000000000FA
:10AD2000347A0020307A00202C910300F0ED00E00E
:10AD30002DE9F04F8BB0FDF7B5FB002800F06F81D7
:10AD4000BE4DDFF81893DFF818A3DFF818B32868B2
:10AD50004FF0FF3207A907F017FD002800F05F81D0
:10AD60009DF81D30013B072B00F2F284DFE813F061
:10AD70000001C900A300940088003F000E000800F5
:10AD8000089B002BE3D009989847E0E79DF8201036
:10AD9000AB4B01F07F0403EB440303EBD11393F8B7
:10ADA00025006FF3000083F8250093F825006FF36A
:10ADB000820083F82500002C00F03481A14ADB7C5E
:10ADC00032B1A14A12789342C0F01C819B1ADBB2C7
:10ADD000042B00F21F8103EB43030AEBC3031C693E
:10ADE0009DF82120099B9DF81C00A047AFE7DFF8E4
:10ADF00050829DF81C6098F8003043F0010388F8F9
:10AE0000003098F825306FF3000388F8253098F863
:10AE100025306FF3820388F8253098F826306FF3D9
:10AE2000000388F8263098F826306FF3820388F8FC
:10AE30002630002000F09EFF9DF8203003F06002D5
:10AE4000602A0DD0402A00F0438103F01F03012B3C
:10AE500000F09B81022B00F06D81002B00F04781F8
:10AE6000D9F80030DC0700D500BE9DF81C00002199
:10AE700001F032FA9DF81C00802101F02DFA66E7FE
:10AE80006F4B1B78DA077FF562AF704B002B3FF4F6
:10AE90005EAFAFF300805AE7694B1A78D1077FF5B0
:10AEA00056AF6B4A002A3FF452AF1878C0F3C00087
:10AEB000AFF300804BE7644C624F2278002F00F024
:10AEC000F480002614E0B31ADBB2042B00F2FD80FC
:10AED00003EB43030AEBC3035B691BB19DF81C0042
:10AEE000984722780136F6B2131DB342FFF62FAF12
:10AEF000B242E8D9DBF8003006EB460103EBC103B0
:10AF0000EAE7514C4F4F23789DF81C60002F00F06A
:10AF1000BA800027BB4267D8FB1ADBB2042B00F2D1
:10AF20001F8403EB43030AEBC3035B683046984777
:10AF300023780137FFB21A1DBA42EBDA372200211B
:10AF40003F480AF02FFD434B4FF0FF321A605A6022
:10AF50009A60DA601A615A619A61DA611A8400F0C3
:10AF6000FFFE3D4B002B3FF4F2AEAFF30080EEE668
:10AF7000354C344F23789DF81C60002F5AD00027A1
:10AF80009F4238D3FB1ADBB2042B00F2E98303EBB8
:10AF900043030AEBC3035B683046984723780137C5
:10AFA000FFB21A1DBA42EBDA254C372200212046A7
:10AFB0000AF0F8FC4FF0FF33C4F80330C4F8073050
:10AFC000C4F80B30C4F80F30C4F81330C4F817308D
:10AFD000C4F81B30C4F81F30A4F8233000F0C0FEC2
:10AFE0009DF82030A370B2E6DBF8003007EB470293
:10AFF00003EBC20399E7DBF8003007EB470203EBF2
:10B00000C203C8E7DBF8002003EB430312EBC303E2
:10B010007FF4E5AE114B1B68D80700D500BE0BB01E
:10B02000BDE8F08F099B9DF821209DF81C0000F0E1
:10B03000B3FE8CE6DFF8288019E000BFC47A002058
:10B04000887A002000000000347A00200000000010
:10B05000000000008B7A002000000000F0ED00E00E
:10B060002C910300307A0020052F00F07983D8F866
:10B070000430304698472378013704339F4208F163
:10B080001808F1DD90E7DFF8508302E0052F00F0AB
:10B090006783D8F804303046984723780137043363
:10B0A000BB4208F11808F1DA48E7CB4E73691BB1CF
:10B0B0009DF81C00984722780137131D9F4206F126
:10B0C00018063FF744AE052FF0D100235B69FFDE81
:10B0D000C24800283FF4C9AE00F04CFE304608AA32
:10B0E0000021FDF74DFF00287FF431AEBDE6202A98
:10B0F00000F08480002A7FF4B3AE9DF82130092B44
:10B100003FF6AEAE01A252F823F000BF93B20200A8
:10B1100093B3020061AE020073B3020061AE02009D
:10B1200055B3020001B3020061AE0200E9B20200B1
:10B13000B7B202009DF8241001F07F03082B3FF600
:10B140008FAE08EB430000EBD110A54CC07C5B0038
:10B15000CF0934B1A34C2478A042C0F08E80001BEC
:10B16000C0B2042862D800EB40000AEBC004002AF9
:10B1700060D0E06800F0FEFDE368304608AA0021D8
:10B18000984700287FF4E3AD6FE69DF824300F2B3D
:10B190003FF66BAE4344924ADB782AB1914A12786B
:10B1A000934261D39B1ADBB2042B3FF65EAE03EBF6
:10B1B00043030AEBC304E06800F0DCFDE36808AA7F
:10B1C00000213046984700287FF4C1AD9DF820301B
:10B1D00013F060047FF449AE9DF821300A3B012B47
:10B1E0003FF643AE00F0C6FD9DF821300A2B00F07B
:10B1F0007B8108A9304600F03FFDA8E59DF824308A
:10B200000F2B3FF632AE4344754ADB7832B1754AB4
:10B2100012789342C0F04D819B1ADBB2042B3FF6AB
:10B2200024AE03EB43030AEBC304A2E7002A7FF436
:10B230001CAE14469DF8212002F0FD00012800F00C
:10B240000A81002A7FF40CAE43443B44304693F815
:10B2500025400DF11A02C4F34004022308A9ADF8F9
:10B260001A4000F023FD72E5DBF8004003EB4303D6
:10B2700014EBC3043FF4F9AD9DE7DBF8004000EBAD
:10B28000400004EBC004002AD4D0002C7FF471AF3E
:10B29000EBE598F800309C0804F00204C3F3401377
:10B2A0001C43304602230DF11A0208A9ADF81A40DA
:10B2B00000F0FCFC4BE59DF8223002931A4698F80A
:10B2C00001309A4208D098F80130002B40F0958167
:10B2D000029B002B40F01281029B88F8013030461F
:10B2E00008A900F0C9FC32E598F801308DF81A3051
:10B2F000304601230DF11A0208A900F0D7FC26E51B
:10B30000BDF82200030A5A1EC0B20E2A3FF6ADADA8
:10B3100001A151F822F000BF3FB4020023B40200A3
:10B3200013B402006BAE02006BAE0200EDB302007C
:10B3300023B402006BAE02006BAE02006BAE0200E3
:10B340006BAE02006BAE02006BAE02006BAE020091
:10B35000B3B3020008A800F013FD9DF82210304698
:10B3600000F01AFE98F8003043F0020388F800302D
:10B37000EDE4BDF82230012B7FF477AD98F8003072
:10B38000304643F0080308A988F8003000F074FC48
:10B39000DDE4BDF82230012B7FF467AD98F8003072
:10B3A00030466FF3C30308A988F8003000F064FC4E
:10B3B000CDE40D4B002B3FF458ADFDF7DDFD02460B
:10B3C00000283FF44DAD5388304608A900F06EFCCC
:10B3D00000287FF4BCAC48E52C910300818F02006B
:10B3E00000000000347A0020798F0200B64B002B59
:10B3F0003FF43BADAFF30080024600283FF435AD8B
:10B400001378304608A900F051FC00287FF49FAC67
:10B410002BE5BDF82410FDF75DFC02460028EFD1B6
:10B4200023E5022B00F08A81A84B002B3FF41DADD1
:10B43000AFF300800246002A3FF412ADC3E7FDF7E8
:10B440003FFC1223024608A9304600F02FFC0028DA
:10B450007FF47DAC09E5BDF82200009048B9012ACF
:10B4600043442FD03B4403F1200793F825309B073A
:10B4700013D5002C3FF46BACE06800F07BFCE36874
:10B4800008AA002130469847002000F073FC98F885
:10B490002630DF073FF55BACABE6304600F01CFF23
:10B4A0007B7943F002037B717B7943F001037B716D
:10B4B000DFE7DBF8004003EB430314EBC3043FF486
:10B4C000D4AC56E61F4420377B799A07D1D5304655
:10B4D00000F042FF7B79009A62F341037B717B7934
:10B4E00062F300037B71C4E708A9304601230DF124
:10B4F0001A028DF81A4000F0D9FB28E4581EC0B299
:10B50000FDF7E2FB002871D04378022B6ED1C2799F
:10B5100098F80010C2F340131B01C2F3801221F00F
:10B52000300143EA42130B4388F800304388039606
:10B53000C31800F1090704933946049B8B4240F27B
:10B54000F5804B780B2B00F0DD8001220092042B5C
:10B550004CD1049B5E4A5B1A9BB201935D4B1B78F6
:10B560004AB3002637461DE0F31ADCB2042C00F281
:10B57000EC8004EB44040AEBC404019AA36803982A
:10B580000591984708280599024603D9019B8342F3
:10B5900080F082804F4B1B780136F6B21A1DB24202
:10B5A000374623DBB342DFD9DBF8004006EB460326
:10B5B00004EBC304E1E7484B17461C46052FFEB2D7
:10B5C00000F0C380019AA368039805919847082862
:10B5D0000599024602D9019890425DD23D4B1B78F5
:10B5E00001370433BB4204F11804E7DAD9F800301C
:10B5F000D9077FF535AC00BE32E4364C344F3046C7
:10B6000000F072FD98F802202378009287B300279B
:10B61000BB4226D8FB1ADBB2042B00F2A18003EB5D
:10B6200043030AEBC3035B6830469847237801372E
:10B63000FFB21A1DBA42EBDA3722284800210AF07D
:10B64000B1F9274B009A88F802204FF0FF321A60B8
:10B650005A609A60DA601A615A619A61DA611A84F2
:10B6600036E6DBF8003007EB470203EBC203DAE70C
:10B67000194B304626461C4601E0052F70D0636802
:10B68000019098473278019801370432BA4204F1A8
:10B690001804F2DA0646CFE7009B012B38D0009B56
:10B6A00003B391F802C0002305E00133C67000988F
:10B6B000DCB2844216D20CEB030058FA80F0C47856
:10B6C000FF2CF2D092E700BF000000000000000055
:10B6D00000000000347A00202C910300887A0020BA
:10B6E0008B7A002033462048CDE90012FCF710FF8A
:10B6F0001E4B1B78DDE900120433BB421144BFF638
:10B700001CAF73E70B78CA78009219444B781EE798
:10B71000A3681748834206D0009C1648834208BF9E
:10B7200002240094BDE702230093BAE7124B039E64
:10B73000002B3FF4D1ADAFF30080CDE5FDF7C4FAA7
:10B740000246002A3FF48CAB3DE600239B68FFDEF7
:10B75000D9F80030DB077FF5FAAA00BEFFF7F7BA89
:10B7600000235B68FFDE00BF9B7A0020347A002054
:10B7700075920200FD9902000000000030B589B00A
:10B7800000248D1ECDE9024404948DF809108DF833
:10B790000800032D5CD8DFE805F0082C48023B4B7D
:10B7A0001978C80761D409B030BD384938480B78DA
:10B7B00000686FF300030B700C7800236FF34104F3
:10B7C0000C704B700C7863F382040C70002A37D035
:10B7D00002A905AA06F02AFF059B002BE3D02D4BFA
:10B7E0004FF080525A6040BFBFF34F8FBFF36F8F4F
:10B7F000D9E7264B19784907D5D51978244C6FF32A
:10B800008201197000230521CDE9053307938DF8D6
:10B8100014008DF815102068002A2FD1134605A9B1
:10B820004FF0FF3206F0E4FCBDE7184B1978CC0767
:10B83000B9D51978164841F00401006819705AB951
:10B84000134602A94FF0FF3206F0D2FC09B030BD1A
:10B850000F4B1868002AF3D0002302A905AA06F0AE
:10B86000E5FE059B002B9ED0B9E7197808486FF3D9
:10B87000820100681970002AEED1E1E705A901AA4A
:10B8800006F0D4FE019B002B8DD0A8E7887A00201B
:10B89000C47A002000ED00E030B5144D85B00024DE
:10B8A0000123CDE9014403948DF804008DF80810BC
:10B8B00028688DF805303AB9134601A94FF0FF32D8
:10B8C00006F096FC05B030BD234601A96A4606F095
:10B8D000ADFE009B002BF5D0054B4FF080525A6017
:10B8E00040BFBFF34F8FBFF36F8FEBE7C47A0020E9
:10B8F00000ED00E030B50B4685B004464968186895
:10B90000124D8DF8044002AC03C4002306212868C0
:10B91000ADF806308DF805103AB9134601A94FF07D
:10B92000FF3206F065FC05B030BD6A4601A906F09D
:10B930007DFE009B002BF6D0054B4FF080525A60E5
:10B9400040BFBFF34F8FBFF36F8FECE7C47A002087
:10B9500000ED00E030B585B0164D03929DF8204013
:10B960002D680022CDE901228DF8081007218DF8FD
:10B9700004008DF809308DF8051044B9234601A95B
:10B9800028464FF0FF3206F033FC05B030BD1346B9
:10B9900001A928466A4606F049FE009B002BF4D018
:10B9A000054B4FF080525A6040BFBFF34F8FBFF33B
:10B9B0006F8FEAE7C47A002000ED00E02DE9F84F30
:10B9C000DDE90A8A002A3CD0DFF8809007460C4661
:10B9D0001E4615464FF0000B17E099F80210FCF7D1
:10B9E00063FD034621463846EBB100F0E7FAF8B1B3
:10B9F000A378DA0914BF8AF8003088F80030237879
:10BA00000BF1010BAB451C441BD06378052B204682
:10BA10000ED1E17801F00301B14209D1A37803F01E
:10BA20007F03082BD9D9084B1B68DA0700D500BE65
:10BA3000054B1B68DB0702D40020BDE8F88F00BE71
:10BA4000FAE70120BDE8F88FF0ED00E0887A0020E9
:10BA500030B5124D85B000230824CDE902010193D1
:10BA600028688DF805403AB9134601A94FF0FF3216
:10BA700006F0BEFB05B030BD6A4601A906F0D6FD52
:10BA8000009B002BF6D0064B4FF080525A6040BF0F
:10BA9000BFF34F8FBFF36F8FECE700BFC47A002076
:10BAA00000ED00E038B58B7803F07F03082B06D952
:10BAB0000A4B1B68DB0700D500BE002038BD084BD1
:10BAC0000C46054608469978FCF7EEFC0028EFD0B6
:10BAD00021462846BDE8384000F070BAF0ED00E09D
